:020000040800F2
:10000000A806002089010008BD0700084106000875
:1000100089070008C9020008071200080000000054
:10002000000000000000000000000000550C000867
:10003000CD02000800000000110C0008410D00086E
:10004000A3010008A3010008A3010008A301000800
:10005000A3010008A3010008A3010008A3010008F0
:10006000A3010008A3010008D1020008A3010008B1
:10007000A3010008A3010008A3010008A3010008D0
:10008000A3010008A3010008A3010008A3010008C0
:10009000A3010008A3010008A3010008A3010008B0
:1000A000A3010008A3010008A3010008A3010008A0
:1000B000A50D0008A3010008A3010008A301000882
:1000C000A3010008A3010008A3010008A301000880
:1000D000A3010008A301000801110008A301000802
:1000E000A3010008A3010008A301000800F002F822
:1000F00000F03AF80AA090E8000C82448344AAF188
:100100000107DA4501D100F02FF8AFF2090EBAE885
:100110000F0013F0010F18BFFB1A43F0010318473B
:100120006422000084220000103A24BF78C878C1FD
:10013000FAD8520724BF30C830C144BF04680C60ED
:10014000704700000023002400250026103A28BF35
:1001500078C1FBD8520728BF30C148BF0B60704739
:100160001FB51FBD10B510BD00F036F81146FFF7E2
:10017000F7FF01F079F800F054F803B4FFF7F2FF4D
:1001800003BC00F057F800000948804709480047C1
:10019000FEE7FEE7FEE7FEE7FEE7FEE7FEE7FEE737
:1001A000FEE7FEE704480549054A064B7047000094
:1001B000450D0008ED000008A8000020A80600205A
:1001C000A8020020A8020020704770477047000076
:1001D00000487047440000207546FFF7F9FFAE461F
:1001E00005006946534620F00700854618B020B543
:1001F000FFF7D8FFBDE820404FF000064FF00007A2
:100200004FF000084FF0000B21F00701AC46ACE8BE
:10021000C009ACE8C009ACE8C009ACE8C0098D462B
:10022000704710B50446AFF300802046BDE810408B
:10023000FFF7A3BF01491820ABBEFEE7260002006E
:100240007047000008B50121082000F0F3FC1020E1
:100250008DF803002020ADF8000003208DF8020087
:100260006946024800F0EAF808BD0000000C0140B1
:1002700010B504462021074800F074F9204600F02C
:10028000C4FF2021034800F06FF9204600F0BDFFB5
:1002900010BD0000000C014010B500240EE020212C
:1002A000084800F05FF9012000F0AFFF2021054869
:1002B00000F05AF9012000F0A8FF641C322CEEDB9C
:1002C00010BD0000000C014000BFFEE770470000B9
:1002D00008B5102000F034F838B31021134800F0AE
:1002E00038F9F8B90020009002E00098401C009016
:1002F00041F2883100988842F7D300BF10210B48A3
:1003000000F027F90028F9D00020009002E00098C2
:10031000401C009041F2883100988842F7D30220B7
:1003200003490880102000F005F808BD00080140CE
:1003300016000020014908607047000014040140C5
:10034000014600200022074B1B6803EA0102054B0F
:1003500014331B680B4013B10AB1012000E00020E8
:100360007047000000040140002123498279002ADF
:100370003AD00A46126803689A430B461A600A1D6F
:10038000126803689A430B1D1A60027911440A68C7
:1003900003681A430A60184A0832126803689A43CD
:1003A000154B08331A601A1D126803689A43124BE2
:1003B0000C331A604279102A0ED11A1F1268036892
:1003C0001A430D4B08331A601A1D126803681A434A
:1003D000094B0C331A600DE00749427911440A6851
:1003E00003681A430A6005E0027911440A68036849
:1003F0009A430A60704700000004014030B50022B3
:100400008B071C0F0F2303FA04F20B4B8C1053F8CD
:1004100024309343084C8D1044F8253023468C102B
:1004200053F824308C07240F00FA04F42343024CC1
:100430008D1044F8253030BD080001402DE9F04111
:10044000024600250026002000230024002791F802
:1004500003C00CF00F0591F803C00CF0100CBCF1B8
:10046000000F03D091F802C04CEA050591F800C0D6
:10047000BCF1000F31D0146800202BE04FF0010CCC
:100480000CFA00F3B1F800C00CEA03069E4220D13A
:1004900083004FF00F0C0CFA03F7BC4305FA03FC82
:1004A0004CEA040491F803C0BCF1280F06D14FF0C8
:1004B000010C0CFA00FCC2F814C00AE091F803C069
:1004C000BCF1480F05D14FF0010C0CFA00FCC2F84A
:1004D00010C0401C0828D1D31460B1F800C0BCF192
:1004E000FF0F34DD546800202EE000F1080C4FF0BF
:1004F000010808FA0CF3B1F800C00CEA03069E42AA
:1005000021D183004FF00F0C0CFA03F7BC4305FA1E
:1005100003FC4CEA040491F803C0BCF1280F05D198
:1005200000F1080C08FA0CF8C2F8148091F803C026
:10053000BCF1480F07D100F1080C4FF0010808FA90
:100540000CF8C2F81080401C0828CED35460BDE8D7
:10055000F0810246002093680B400BB1012000E0BF
:100560000020704741617047016170470AB1016125
:1005700000E04161704700002DE9F05F00F04EF8A7
:10058000642000F042FE0D48008801F0F2FA804637
:100590000B4A0C4B01F000FB064600220A4B01F00F
:1005A000FBFA044600224FF0804301F05DF98246D9
:1005B00001F0B2FA80B2BDE8F09F00001800002000
:1005C0002D431CEBE2361A3F009AE04008B50121AA
:1005D000042000F02FFB10208DF803000420ADF85C
:1005E000000003208DF8020069460B48FFF726FF44
:1005F00028208DF803000820ADF8000003208DF8B6
:10060000020069460448FFF719FF04210248FFF77A
:10061000A9FF00F033FD08BD0008014010B504211A
:100620000648FFF7A1FF2D2000F007FE0421034834
:10063000FFF798FF00F022FD10BD00000008014008
:1006400000BFFEE71FB50121042000F0F3FA4820A7
:100650008DF80F001020ADF80C0003208DF80E006F
:1006600003A91148FFF7EAFE04210020FFF7C6FEA8
:100670001020019000208DF808000C208DF8090052
:1006800001208DF80A0001A8FFF76EFE0A208DF800
:10069000000001208DF801008DF802008DF80300A4
:1006A000684600F08DF81FBD0008014010B54FF4FA
:1006B00080510248FFF758FF10BD000000080140BC
:1006C00010B54FF480510248FFF74CFF10BD0000F9
:1006D0000008014008B50121042000F0ABFA102009
:1006E0008DF803000002ADF8000003208DF8020031
:1006F00069460448FFF7A2FE4FF480510148FFF716
:1007000031FF08BD0008014070B504460D46002CBD
:1007100007DD01201949086000201949C1F8BC0112
:1007200006E000201549086001201549C1F8BC0108
:10073000261E01DB304600E0704281B2114800F015
:1007400046FC002D08DD01200C4908390860002016
:100750000B49C1F8B40107E00020084908390860D6
:1007600001200749C1F8B4012E1E01DB304600E02C
:10077000704281B2034800F02CFC70BDB881214268
:1007800000802142002C014000BFFEE708B5012196
:10079000082000F04FFA10208DF803004FF470404D
:1007A000ADF8000003208DF8020069460248FFF70B
:1007B00045FE00F0CFF908BD000C01407047000075
:1007C00070B5002100230F22C47804B3154C2468AF
:1007D00004F4E064C4F5E064210AC1F10403CA40F2
:1007E000447804FA03F184781440214309010E4C43
:1007F0000678A155047804F01F050124AC40057863
:100800006D11AD0005F1E025C5F8004109E004785F
:1008100004F01F050124AC40044D0678761145F81C
:10082000264070BD0CED00E000E400E080E100E057
:1008300002490143024A1160704700000000FA05B6
:100840000CED00E070B500240EE00021204600F021
:10085000F4F8002504E0002000F06CF9681CC5B233
:10086000802DF8DB601CC4B2082CEEDB70BD0000EC
:1008700008B50121082000F0DDF914208DF80300EF
:1008800003208DF802004FF48070ADF80000694637
:100890000A48FFF7D3FD4FF40070ADF80000694639
:1008A0000648FFF7CBFD012211020448FFF75EFE68
:1008B000012251020148FFF759FE08BD000C01401A
:1008C00070B50546002419E080202041284008B179
:1008D000012000E0002002464FF400710E48FFF7AF
:1008E00045FE012211020C48FFF740FE00224FF4A2
:1008F00080710948FFF73AFE601CC4B2082CE3DBA4
:10090000012211020448FFF731FE00224FF48071EA
:100910000148FFF72BFE70BD000C014010B501220D
:1009200051020A48FFF722FE012211020748FFF791
:100930001DFE00224FF400710448FFF717FE00224D
:100940004FF480710148FFF711FE10BD000C01400B
:1009500010B500224FF400710648FFF707FE012290
:1009600011020448FFF702FE012251020148FFF77D
:10097000FDFD10BD000C014070B5002406E000250F
:1009800000E06D1CB5F57A7FFBD3641CB4F57A7F6B
:10099000F5D3FFF76DFFAE2000F0BCF8D52000F0D6
:1009A000B9F8802000F0B6F8A82000F0B3F83F2096
:1009B00000F0B0F8D32000F0ADF8002000F0AAF865
:1009C000402000F0A7F8A12000F0A4F8C82000F013
:1009D000A1F8DA2000F09EF8122000F09BF88120A8
:1009E00000F098F8CF2000F095F8D92000F092F8A8
:1009F000F12000F08FF8DB2000F08CF8302000F0C0
:100A000089F8A42000F086F8A62000F083F88D2055
:100A100000F080F8142000F07DF8AF2000F07AF8A4
:100A2000FFF710FF70BD10B50246012000E05043F3
:100A30000B1EA1F10101FAD110BD70B505460C469F
:100A400045F0B00000F066F8102141EA141000F003
:100A500061F804F00F0000F05DF870BD2DE9F04181
:100A600005460E461746721ED206110E6A1E520623
:100A7000100EFFF7E2FF002409E0A7F12001134A5E
:100A800002EB0111085D00F055F8601CC4B2082C9F
:100A9000F3DB721ED206110E6A1E012303EB420223
:100AA000D0B2FFF7CAFF00240BE0A7F12001074AEC
:100AB00002EB011204F10801505C00F03BF8601CED
:100AC000C4B2082CF1DBBDE8F0810000941D0008E1
:100AD0002DE9F04780460E4617461D46002415E0D6
:100AE000281B411E0A20FFF79EFFB7FBF0F00A21EA
:100AF000B0FBF1F201FB120000F130093019C1B274
:100B00004A464046FFF7AAFF601CC4B2AC42E7DB8E
:100B1000BDE8F08710B50446FFF700FF7820FFF727
:100B2000CFFE0020FFF7CCFE2046FFF7C9FEFFF7FF
:100B30000FFF10BD10B50446FFF7F0FE7820FFF759
:100B4000BFFE4020FFF7BCFE2046FFF7B9FEFFF7CF
:100B5000FFFE10BD00B589B00121C80200F06AF89F
:100B60000121042000F066F818208DF823004FF4CE
:100B70001060ADF8200003208DF8220008A922485B
:100B8000FFF75CFC214800F070F90020ADF81A0076
:100B9000ADF816006320ADF818002320ADF814005E
:100BA00000208DF81C0005A9184800F015FA01A8CE
:100BB00000F003FA6020ADF804000020ADF80C004E
:100BC0000120ADF806000020ADF80A0001A90F4889
:100BD00000F052F901A90D4800F0A4F901210B48D9
:100BE00000F01AF90821094800F092F90821074895
:100BF00000F0D6F90121054800F0F0F80121034882
:100C000000F0FEF809B000BD00080140002C0140D2
:100C10007047000029B1064AD2690243044BDA61E9
:100C200004E0034AD2698243014BDA617047000055
:100C30000010024029B1064A92690243044B9A61AE
:100C400004E0034A92698243014B9A6170470000B5
:100C500000100240704710B500F002F810BD00000F
:100C60000CB50020019000903348006840F48030BB
:100C70003149086000BF3048006800F4003000903F
:100C80000198401C0190009818B90198B0F5A06F28
:100C9000F1D12948006800F4003010B10120009023
:100CA00001E0002000900098012843D1234800680B
:100CB00040F01000214908600846006820F0030059
:100CC00008600846006840F0020008601A48406862
:100CD000194948600846406848600846406840F442
:100CE000806048600846406820F47C1048600846F0
:100CF000406840F4E81048600846006840F08070A2
:100D0000086000BF0C48006800F000700028F9D0AF
:100D10000948406820F003000749486008464068D9
:100D200040F00200486000BF0348406800F00C003B
:100D30000828F9D10CBD000000100240002002403C
:100D40007047000010B51348006840F001001149D9
:100D5000086008464068104908400E494860084647
:100D600000680E4908400B4908600846006820F4F6
:100D7000802008600846406820F4FE0048604FF478
:100D80001F008860FFF767FF4FF0006004490860AC
:100D900010BD0000001002400000FFF8FFFFF6FE4B
:100DA00008ED00E010B50121880700F044F80128A3
:100DB0000ED108210748FFF7CCFB012804D10648D3
:100DC0000088401C044908800121880700F015F8BC
:100DD00010BD0000000801401800002021B1028869
:100DE00042F08002028004E002884FF67F731A40CE
:100DF00002807047CA4302827047CA43028270472A
:100E000021B1028842F00102028004E002884FF61C
:100E1000FE731A400280704731B1B0F8442042F4AA
:100E20000042A0F8442005E0B0F84420C2F30E02CE
:100E3000A0F84420704730B502460020002300246B
:100E4000158A05EA0103958905EA010413B10CB17D
:100E5000012000E0002030BD1AB183890B4383815B
:100E600002E083898B438381704701894FF6F872D2
:100E7000114001817047000070B50024002200235A
:100E8000058C4FF6FE7635400584028C8388048BF2
:100E90004FF68F752C40B51E2C400D882C43751EC7
:100EA0002A400D892A434D882A43144DA8420BD06D
:100EB000134DA84208D0134DA84205D0124DA842A8
:100EC00002D0124DA84213D14FF6F7752A404D8932
:100ED0002A434FF6FB752A408D882A434FF6FF655B
:100EE0002B404FF6FF552B408D892B43CD892B434B
:100EF00083800483CD888586028470BD002C0140E8
:100F000000340140004001400044014000480140DD
:100F10000A460021018B4FF6F773194011430183F4
:100F20007047000070B5002200230024058C4EF6A7
:100F3000FF7635400584038C8488828B48F6FF75E4
:100F40002A404FF6FF452A400D884FF6FF7606EA05
:100F500005252A434DF6FF752B400D8906EA053518
:100F60002B434D8806EA05352B430B4DA84202D092
:100F70000A4DA84208D14BF6FF752C408D894FF6DB
:100F8000FF7606EA85152C4384808283CD88A0F8FD
:100F90004050038470BD0000002C0140003401402B
:100FA0000A460021818B4FF2FF7319404FF6FF7301
:100FB00003EA0223194381837047002101804180A5
:100FC0008180C180018141818181C1817047818699
:100FD0007047A0F840107047002202881D4B9842CD
:100FE0000ED01D4B98420BD0B0F1804F08D01B4B58
:100FF000984205D01A4B984202D01A4B984204D11D
:101000004FF68F731A404B881A43174B984207D0FC
:10101000164B984204D04FF6FF431A40CB881A4330
:1010200002808B8883850B8803850A4B98420BD0FE
:10103000094B984208D00E4B984205D00D4B984270
:1010400002D00D4B984201D10B7A03860123838293
:1010500070470000002C01400034014000040040B3
:1010600000080040000C0040001000400014004048
:101070000040014000440140004801401FB50020ED
:101080001E49088001210846FFF7C4FD4FF080404B
:10109000FFF7EBFE0020ADF80A00ADF8060040F6C1
:1010A0007F40ADF808000020ADF804008DF80C007A
:1010B00001A94FF08040FFF78FFF01218807FFF75C
:1010C00099FE012211469007FFF7C6FE4FF4A0607B
:1010D000FFF7AEFB1C208DF8000001208DF8030007
:1010E00002208DF8010001208DF802006846FFF70C
:1010F00067FB01218807FFF783FE1FBD1800002052
:1011000010B540F22551234800F04EF800283FD09A
:10111000204800F073F8C1B21F4802780078401CE4
:101120001D4B18701D48815400785A2802D00020A9
:101130001946087018480078022806D117484078E8
:101140005A2802D000201449087013480078032858
:101150001EDD1248C078401D0F490978884200D032
:1011600010BD0E48807815280ED10D48007850B972
:101170000C480A490A6802604A684260097A0172AA
:1011800001200749087000BF00BF00200249087015
:1011900000BFE5E700440040010000202D000020D2
:1011A000000000202400002070B502460024002327
:1011B0000025002040F66A16B14200D100BFC1F3FD
:1011C000421501F01F03012606FA03F3012D02D197
:1011D0009689334006E0022D02D1168A334001E0A1
:1011E000968A33400C12012606FA04F4168834401D
:1011F00013B10CB1012000E0002070BD01468888C9
:10120000C0F30800704700BFFEE700B5034603E0E7
:101210004FF47A7000F011F8181EA3F10103F7D112
:1012200000BD10B5044603E04FF47A70FFF7EDFF00
:10123000201EA4F10104F7D110BD00EBC001C900CC
:101240004FF0E0225161002191610521116100BF41
:101250004FF0E021096901F480310029F8D0042120
:101260004FF0E022116170474FF4A060FFF7E0FA01
:10127000FFF730FAFFF780FBFFF788FAFEF7E2FF8F
:1012800000F0CAFAFFF7DEF9FFF7A0F91DE1FFF75A
:1012900073F98E4908808E48008801280AD10024FD
:1012A00006E00120FFF7BDFF022089490880641C89
:1012B000022CF6DB00F018F902238648B0F9002072
:1012C00001210846FFF704FC8348008800286CD100
:1012D0008248008801280ED16FF011010846FFF7FF
:1012E00013FA4FF49670FFF790FF03E000210846D1
:1012F000FFF70AFAFAE7794800880028C6D12021CA
:101300007748FFF72FF97148008832284ADA6F488A
:1013100000881F283AD2DFE800F0391011121314A8
:1013200015161718191A1B1C1D1E1F2021222324F5
:1013300025262728292A2B2C2D0000BF00BF00BFFF
:1013400000BF00BF00BF00BF00BF00BF00BF00BFA5
:1013500000BF00BF00BF00BF00BF00BF00BF00BF95
:1013600000BF00BF00BF00BF00BF00BF00BF00BF85
:1013700000BF00BFFFF79AF95448008800B2FEF79B
:1013800077FF00210846FFF7BFF90AE06FF0090177
:101390000846FFF7B9F94D48008800B2FEF768FF2C
:1013A00000BF92E000F010F98FE04B48008802285F
:1013B000F7D14A48008801280ED16FF01101084684
:1013C000FFF7A2F94FF49670FFF71FFF03E000212B
:1013D0000846FFF799F9FAE740480088002874D1D9
:1013E00020213F48FFF7BEF83848008832286ADAE3
:1013F000364800881C285AD2DFE800F0590E0F103A
:101400001112131415161718191A1B1C1D1E1F2054
:10141000212223242526272800BF00BF00BF00BFAC
:1014200000BF00BF00BF00BF00BF00BF00BF00BFC4
:1014300000BF00BF00BF00BF00BF00BF00BF00BFB4
:1014400000BF00BF00BF00BF00BF00BFFFF72EF905
:101450001E48008800B2FEF70BFF00210846FFF788
:1014600053F9002408E06FF009010D20FFF74CF953
:101470000520FFF7CAFE641C782CF4DB09E020216C
:101480001748FFF76FF86FF018016FF00E00FFF7C5
:101490003BF980211348FFF75CF80028EFD00A21C0
:1014A0000846FFF731F91420FFF7AFFE0AE06FF0AE
:1014B00009010846FFF728F90448008800B2FEF742
:1014C000D7FE00BF01E000F07FF8E0E6200000203A
:1014D0001E0000201A000020160000201C00002022
:1014E000000C01400008014010B520212E48FFF7F4
:1014F00030F82E49088040212B48FFF72AF82C4964
:10150000088080212848FFF724F82A490880012113
:101510002948FFF71EF82949088002212648FFF7CD
:1015200018F82749088008460088012810D1234868
:10153000008868B91F480088012809D11C48008824
:1015400030B91A480088012802D11E4908802AE0D3
:101550001B480088012812D11848008801280ED1A4
:101560001448008801280AD111480088012806D1B2
:101570000E480088012802D11249088013E0104863
:10158000008880B90D48008801280CD109480088DE
:1015900048B907480088012805D10448008810B9D7
:1015A00001200849088010BD0008014012000020F9
:1015B000100000200E000020000C01400C00002054
:1015C0000A0000201C00002010B5FFF779F8202148
:1015D0008848FEF7C7FF88480088012811D187484E
:1015E000008870B98648008858B98648008840B994
:1015F0008548008828B96FF01D014810FFF784F86E
:10160000F6E07D480088C8B97C480088012815D1DB
:101610007B48008890B97B48008878B97A48008870
:1016200060B96FF01801081DFFF76EF87748008861
:101630000128E5D1022075490880D9E06E4800886C
:1016400098B96E48008801280FD16D48008801289C
:101650000BD16C48008840B96B48008828B96FF0FE
:101660001701881CFFF750F8C2E063480088C8B92A
:1016700062480088B0B962480088012812D16148E8
:10168000008878B96048008860B96FF01601481E7C
:10169000FFF73AF85D4800880128B1D102205B4984
:1016A0000880A5E054480088D0B954480088B8B9EB
:1016B00053480088012813D15248008801280FD1CF
:1016C0005148008860B96FF01301481FFFF71CF8FC
:1016D0004E480088012893D102204C49088087E0B9
:1016E0004548008898B94548008880B94448008832
:1016F00068B944480088012809D14348008830B9B6
:101700006FF009016FF01D00FEF7FEFF70E03F482B
:101710000088D8B938480088C0B9384800880128FE
:1017200014D137480088012810D136480088012894
:101730000CD13548008848B9FEF7B8FF012034497C
:10174000088032490880FEF7A7FD51E02F48008845
:1017500002281CD128480088C8B9284800880128D8
:1017600015D127480088012811D126480088012872
:101770000DD12548008850B9FEF798FF0220244972
:101780000880032021490880FEF786FD30E01E48CE
:10179000008801282CD1002408E06FF011010846D0
:1017A000FEF7B2FF0420FFF730FD641C822CF4DB4F
:1017B000002408E06FF009010D20FEF7A5FF0520C9
:1017C000FFF723FD641C962CF4DB04E06FF00901A5
:1017D0000E20FEF799FF40210E48FEF7BAFE0028C2
:1017E000F4D00A210846FEF78FFF1420FFF70DFD05
:1017F00010BD0000000C01400A0000200C00002079
:101800000E00002010000020120000201400002014
:101810001A0000200008014008B501210420FFF74C
:1018200009FA01210820FFF705FA04208DF80300CA
:10183000E020ADF8000003208DF80200694608485A
:10184000FEF7FCFD04208DF803000320ADF8000036
:101850008DF8020069460348FEF7F0FD08BD000060
:1018600000080140000C01402DE9C04130B4DFF810
:10187000A0C23CEA111418BF3CEA131400F0EC803B
:1018800081EA03051CEA111444EAD57418BF1CEA66
:10189000131500F0C780A4EB05044FF0004545EA9E
:1018A000C12145EAC32341EA505143EA525304F1AE
:1018B0007F74994204F500344FEAC0204FEAC222F7
:1018C00008BF904200F09C804FEA13650FF240166B
:1018D000765D4FEA134506FB05F7C7F1807706FBF7
:1018E00007F74FEAD737A7FB03687642C8F5803879
:1018F000A7FB06CE38BFA8F1010807FB08E64FF0AA
:10190000000EA6FB028CE6FB03CEDCF1000CCEF150
:10191000004E38BFAEF1010EA6FB0C584FF0000789
:101920004FF00005E6FB0E87A1FB08C6A0FB07CE23
:1019300016EB0E0645F10005E1FB076515F1E04EDB
:101940007EBFA4F580345FEA46066D4116F180073C
:1019500045F100054FEA17274FEA066647EA056793
:10196000A6F1DE46B6F1805F4FEA15251FD938464D
:1019700024F0010C05EBC471BCF1FE6F01EB0C11FE
:1019800002D8F0BCBDE8008124425CBF01F5801E96
:101990009EEAC47F02D4F0BCBDE80081244238D462
:1019A000F0BCA1F1C041BDE8004100F0EDB94FEA43
:1019B000D22242EA43524FEAD323A7FB02864FEAE0
:1019C000D02040EA415007FB03661EEA0E0F4FEAA3
:1019D000D12105FB026658BFA6EB0056B6EB0056B8
:1019E0004FEA520E4EEAC37E18EB0E0E56EB530E24
:1019F000BDD518EB02085E417F1C55F10005B6E726
:101A00004FF480154FF000074FF000064FF000082C
:101A1000ADE7F0BC4FF0000001F1C04101F0004122
:101A2000BDE8008111EA0C1F0CEA131500D00CE090
:101A300013EA0C1F00F025804FF00000F0BC81EA93
:101A4000030101F00041BDE80081F0BCBDE80041A8
:101A500081EA030100F098B9F0BCBDE8004170B51F
:101A600000F044F9097EFC3E00F007B881EA03016A
:101A70004FF0000001F00041704781EA030100F0DF
:101A800083B9F0BCBDE800414FF000002149704728
:101A9000FFFDFBF9F7F5F4F2F0EEEDEBE9E8E6E433
:101AA000E3E1E0DEDDDBDAD8D7D5D4D3D1D0CFCDBA
:101AB000CCCBCAC8C7C6C5C4C2C1C0BFBEBDBCBBF3
:101AC000BAB9B8B7B6B5B4B3B2B1B0AFAEADACABEE
:101AD000AAA9A8A8A7A6A5A4A3A3A2A1A09F9F9EC8
:101AE0009D9C9C9B9A99999897979695959493937A
:101AF000929191908F8F8E8E8D8C8C8B8B8A898911
:101B00008888878786858584848383828281818093
:101B10000000FF070000F87F4FEA1153A3F5806330
:101B2000D3F11E03A8BFD3F1200C08DB4FF0004215
:101B300042EAC12252EA505232FA03F07047094297
:101B40000BD4102BC4BF0020704703F5787CBCF188
:101B5000FF3F05D04FF0FF3070474FF00000704757
:101B600070B500F0C3F800BF499224800020704790
:101B7000F0E7B0FA80F310FA03F10AD0C3F11D03C5
:101B800003F580634FEA41504FEA035202EBD12143
:101B900070474FF000007047DFF848C170B51CEA8D
:101BA000111E1EBF1CEA13159EEA0C0F95EA0C0FBE
:101BB00000F06F8081EA030423EA4C134EEAD47EDE
:101BC00021EA4C1141F4801143F48013AE44A1FB8F
:101BD000024CA0FB0365AEF17F7E361955EB0C0578
:101BE000A1FB034C4CF10003A0FB021C16EB0C06FE
:101BF000654153F10003094218BF46F0010613F492
:101C0000007F0BD14FEA03314FEA0530340341EA3C
:101C1000155140EA16506FF003020AE04FEAC32163
:101C20004FEAC520F40241EA555140EA56506FF0A0
:101C3000020202EB2E4201EB025585EACE710AD078
:101C40005FEA440C18BF24F0004450F1000041F159
:101C5000000120EAD47040F2FE7C624500D270BDE3
:101C6000A84214BF4FF080444FF04044002E08BFFC
:101C70000024BEF1806FA8BFA1F1C041BDE8704053
:101C800080F282804FF0000001F1C04101F000417C
:101C900070479EEA0C0F0CEA131518BF95EA0C0F5B
:101CA00006D04FF0000081EA030E0EF0004170BD37
:101CB00000F01CF88900013E00F007B800F009B8F8
:101CC0004FEA430C5FEA5C5C08D081EA030100F054
:101CD0005BB84FEA410C5FEA5C5CF6D14FF0000064
:101CE000014970470000FF070000F87F0EF1020E67
:101CF0002EF0030E5EF8046B364205D4012A43EB46
:101D0000030515F5001F12D8012841EB010C1CF545
:101D1000001F0CD80ED14FEAD17C15F5001F0CEB3B
:101D20004C0C0CF1020C08BF4CEBD37C04E04FF0E0
:101D3000080C01E04FEAD37C0CEB4C0526FA05F6C3
:101D400006F00706B6F1040C06D20EEB860CBDE8D1
:101D500070404CF0010C6047DFE80CF0090B020208
:101D60004FF000414FF00000A1F5002170BD194671
:101D70001046012851EB010418BFD4F5001484BFAC
:101D8000002001F0004170BD0808A0F500114FEAE5
:101D9000310170470000000000000000000000005A
:101DA00000000000000000F8000000000000003308
:101DB0003000000000100C06100C060000000000AF
:101DC0000000000040C07840C0784000043F040498
:101DD0003F040400007088FC08300000001820FF59
:101DE000211E0000F008F000E018000000211C0394
:101DF0001E211E0000F00888700000001E21232410
:101E00001927211010160E0000000000000000002D
:101E100000000000000000E01804020000000007BD
:101E20001820400000020418E000000000402018C4
:101E300007000000404080F0804040000202010F97
:101E400001020200000000F0000000000101011F7B
:101E500001010100000000000000000080B07000DF
:101E6000000000000000000000000000000101016F
:101E700001010101000000000000000000303000FE
:101E800000000000000000008060180400601806D8
:101E90000100000000E010080810E000000F102012
:101EA00020100F00001010F8000000000020203F5C
:101EB00020200000007008080888700000302824E6
:101EC0002221300000300888884830000018202087
:101ED00020110E000000C02010F8000000070424AC
:101EE000243F240000F808888808080000192120F1
:101EF00020110E0000E0108888180000000F11204B
:101F000020110E0000380808C83808000000003F03
:101F1000000000000070880808887000001C222162
:101F200021221C0000E010080810E000000031220F
:101F300022110F00000000C0C000000000000030AF
:101F40003000000000000080000000000000806001
:101F50000000000000008040201008000001020482
:101F60000810200040404040404040000404040469
:101F70000404040000081020408000000020100825
:101F800004020100007048080808F000000000305A
:101F900036010000C030C828E810E00007182724E8
:101FA00023140B000000C038E0000000203C230296
:101FB0000227382008F8888888700000203F2020F9
:101FC00020110E00C030080808083800071820202B
:101FD0002010080008F808080810E000203F202022
:101FE00020100F0008F88888E8081000203F202003
:101FF0002320180008F88888E8081000203F2000F7
:1020000003000000C030080808380000071820202E
:10201000221E020008F808000008F808203F2101ED
:1020200001213F20000808F8080800000020203F98
:102030002020000000000808F8080800C080808008
:102040007F00000008F888C028180800203F200101
:102050002638200008F8080000000000203F20205B
:102060002020300008F8F800F8F80800203F003F72
:10207000003F200008F830C00008F808203F20008A
:1020800007183F00E01008080810E0000F1020209B
:1020900020100F0008F808080808F000203F210170
:1020A00001010000E01008080810E0000F182424C7
:1020B00038504F0008F8888888887000203F20003A
:1020C000030C3020007088080808380000382021F0
:1020D00021221C00180808F8080818000000203FFA
:1020E0002000000008F808000008F808001F202061
:1020F00020201F000878880000C838080000073832
:102100000E010000F80800F80008F800033C070082
:10211000073C0300081868808068180820302C03EA
:10212000032C30200838C800C83808000000203FC1
:102130002000000010080808C838080020382621B0
:1021400020201800000000FE020202000000007FB4
:1021500040404000000C30C00000000000000001C2
:102160000638C00000020202FE00000000404040AD
:102170007F000000000004020202040000000000D2
:10218000000000000000000000000000808080804F
:102190008080808000020204000000000000000037
:1021A00000000000000080808080000000192422D0
:1021B00022223F2008F8008080000000003F11200C
:1021C00020110E000000008080800000000E112011
:1021D00020201100000000808088F800000E1120EF
:1021E00020103F200000808080800000001F2222FD
:1021F00022221300008080F0888888180020203F69
:10220000202000000000808080808000006B94947B
:102210009493600008F8008080800000203F210037
:1022200000203F2000809898000000000020203F00
:1022300020200000000000809898000000C08080EE
:10224000807F000008F8000080808000203F24028A
:102250002D302000000808F8000000000020203F7A
:10226000202000008080808080808000203F20002F
:102270003F20003F8080008080800000203F2100C0
:1022800000203F200000808080800000001F202070
:1022900020201F00808000808000000080FFA1209F
:1022A00020110E000000008080808000000E1120B0
:1022B00020A0FF80808080008080800020203F213F
:1022C00020000100000080808080800000332424F2
:1022D00024241900008080E0808000000000001F9E
:1022E000202000008080000000808000001F20204F
:1022F00020103F20808080000080808000010E3010
:102300000806010080800080008080800F300C0370
:102310000C300F0000808000808080000020312E73
:102320000E312000808080000080808080818E704F
:102330001806010000808080808080000021302C01
:102340002221300000000000807C0202000000001A
:10235000003F404000000000FF00000000000000BF
:10236000FF0000000002027C800000000040403FAF
:102370000000000000060101020204040000000049
:1023800000000000A423000800000020240000003A
:1023900028010008C823000824000020840600004B
:1023A00044010008000000000100000032000000AD
:1023B000000000000000000000000000000000001D
:0823C000000001000000000014
:04000005080000ED02
:00000001FF
