:020000040800F2
:100000003807002089010008190800089D0600082B
:10001000E5070008A102000889160008000000009A
:10002000000000000000000000000000450F000874
:10003000A502000800000000950C0008311000081F
:10004000A3010008A3010008A3010008A301000800
:10005000A3010008A3010008A3010008A3010008F0
:10006000A3010008A3010008A9020008A3010008D9
:10007000A3010008A3010008A3010008A3010008D0
:10008000A3010008A3010008A3010008A3010008C0
:10009000A3010008A3010008A3010008A3010008B0
:1000A000A3010008A3010008A3010008A3010008A0
:1000B00095100008A3010008A3010008A30100088F
:1000C000A3010008A3010008A3010008A301000880
:1000D000A3010008A3010008B91400086115000875
:1000E000A3010008A3010008A301000800F002F822
:1000F00000F03AF80AA090E8000C82448344AAF188
:100100000107DA4501D100F02FF8AFF2090EBAE885
:100110000F0013F0010F18BFFB1A43F0010318473B
:10012000E025000000260000103A24BF78C878C1FE
:10013000FAD8520724BF30C830C144BF04680C60ED
:10014000704700000023002400250026103A28BF35
:1001500078C1FBD8520728BF30C148BF0B60704739
:100160001FB51FBD10B510BD00F036F81146FFF7E2
:10017000F7FF01F0AFFA00F054F803B4FFF7F2FF15
:1001800003BC00F057F800000948804709480047C1
:10019000FEE7FEE7FEE7FEE7FEE7FEE7FEE7FEE737
:1001A000FEE7FEE704480549054A064B7047000094
:1001B00035100008ED000008380100203807002045
:1001C0003803002038030020704770477047000054
:1001D00000487047D40000207546FFF7F9FFAE468F
:1001E00005006946534620F00700854618B020B543
:1001F000FFF7D8FFBDE820404FF000064FF00007A2
:100200004FF000084FF0000B21F00701AC46ACE8BE
:10021000C009ACE8C009ACE8C009ACE8C0098D462B
:10022000704710B50446AFF300802046BDE810408B
:10023000FFF7A3BF01491820ABBEFEE7260002006E
:100240007047000008B50121042000F035FD1020A2
:100250008DF803004001ADF8000003208DF8020086
:100260006946024800F0D6F808BD000000080140C9
:1002700010B5044604EB840004B24FF40071074843
:1002800000F0A5F9204601F001FA4FF4007103488F
:1002900000F09FF9204601F0F9F910BD0008014077
:1002A00000BFFEE77047000008B5102000F034F8EA
:1002B00038B31021134800F081F9F8B900200090FC
:1002C00002E00098401C009041F28831009888427A
:1002D000F7D300BF10210B4800F070F90028F9D0C7
:1002E0000020009002E00098401C009041F288310C
:1002F00000988842F7D3012003490880102000F0BD
:1003000005F808BD000801400C0000200149086004
:100310007047000014040140014600200022074BF2
:100320001B6803EA0102054B14331B680B4013B131
:100330000AB1012000E000207047000000040140E5
:10034000002123498279002A3AD00A4612680368BC
:100350009A430B461A600A1D126803689A430B1DE4
:100360001A60027911440A6803681A430A60184A3D
:100370000832126803689A43154B08331A601A1D35
:10038000126803689A43124B0C331A604279102AA0
:100390000ED11A1F126803681A430D4B08331A60F6
:1003A0001A1D126803681A43094B0C331A600DE0DA
:1003B0000749427911440A6803681A430A6005E054
:1003C000027911440A6803689A430A607047000082
:1003D0000004014030B500228B071C0F0F2303FAE5
:1003E00004F20B4B8C1053F824309343084C8D10BF
:1003F00044F8253023468C1053F824308C07240F02
:1004000000FA04F42343024C8D1044F8253030BD2B
:10041000080001402DE9F041024600250026002099
:1004200000230024002791F803C00CF00F0591F879
:1004300003C00CF0100CBCF1000F03D091F802C007
:100440004CEA050591F800C0BCF1000F31D01468EA
:1004500000202BE04FF0010C0CFA00F3B1F800C0C3
:100460000CEA03069E4220D183004FF00F0C0CFAD9
:1004700003F7BC4305FA03FC4CEA040491F803C0FB
:10048000BCF1280F06D14FF0010C0CFA00FCC2F8A9
:1004900014C00AE091F803C0BCF1480F05D14FF039
:1004A000010C0CFA00FCC2F810C0401C0828D1D383
:1004B0001460B1F800C0BCF1FF0F34DD54680020B7
:1004C0002EE000F1080C4FF0010808FA0CF3B1F827
:1004D00000C00CEA03069E4221D183004FF00F0CAE
:1004E0000CFA03F7BC4305FA03FC4CEA040491F848
:1004F00003C0BCF1280F05D100F1080C08FA0CF874
:10050000C2F8148091F803C0BCF1480F07D100F184
:10051000080C4FF0010808FA0CF8C2F81080401CD3
:100520000828CED35460BDE8F0810000F0B50A463B
:10053000002300240021002500F00046B6F1004F02
:1005400002D11D4EF16901E01B4E7168C0F30345F5
:1005500083B200F44016B6F5401F08D121F0706157
:10056000154E766826F07066134F7E6012E000F438
:100570008016B6F5801F06D1032606FA05F4A143BE
:1005800041F0706106E0460D360103FA06F6B1430C
:1005900041F0706122B1460D360103FA06F631438F
:1005A00000F00046B6F1004F02D1034EF16101E0C8
:1005B000014E7160F0BD00000000014002460020C5
:1005C00093680B400BB1012000E0002070474161AF
:1005D0007047016170470AB1016100E041617047F5
:1005E00010B504211848FFF7F2FF04211648FFF761
:1005F000F0FF142001F056F804211348FFF7E7FF3D
:1006000000BF08211048FFF7D9FF0028F9D00020CB
:100610004FF08041888400BF08210B48FFF7CEFFD0
:100620000128F9D04FF08040808C084908600846C6
:10063000006801F081FC0446054901F09BFB054977
:1006400008600846006810BD000801401000002046
:10065000000068421800002008B50121042000F0C5
:100660002BFB10208DF803000420ADF800000320C0
:100670008DF8020069460848FFF7CCFE28208DF867
:1006800003000820ADF8000003208DF80200694641
:100690000148FFF7BFFE08BD0008014000BFFEE7AC
:1006A0001FB50121042000F007FB48208DF80F0042
:1006B0001020ADF80C0003208DF80E0003A911489E
:1006C000FFF7A8FE04210020FFF784FE1020019010
:1006D00000208DF808000C208DF8090001208DF80D
:1006E0000A0001A8FFF72CFE0A208DF80000012067
:1006F0008DF801008DF802008DF80300684600F0C7
:100700008DF81FBD0008014010B54FF4805102481C
:10071000FFF75FFF10BD00000008014010B54FF467
:1007200080510248FFF753FF10BD00000008014050
:1007300008B50121042000F0BFFA10208DF8030055
:100740000002ADF8000003208DF80200694604485D
:10075000FFF760FE4FF480510148FFF738FF08BDF6
:100760000008014070B504460D46002C07DD01204D
:100770001949086000201949C1F8BC0106E00020B1
:100780001549086001201549C1F8BC01261E01DB8E
:10079000304600E0704281B2114800F0ECFD002DBF
:1007A00008DD01200C490839086000200B49C1F818
:1007B000B40107E000200849083908600120074912
:1007C000C1F8B4012E1E01DB304600E0704281B258
:1007D000034800F0D4FD70BDB88121420080214261
:1007E000002C014000BFFEE708B50121082000F001
:1007F00063FA10208DF803004FF47040ADF800004C
:1008000003208DF8020069460248FFF703FE00F05E
:10081000E3F908BD000C01407047000070B50021ED
:1008200000230F22C47804B3154C246804F4E06458
:10083000C4F5E064210AC1F10403CA40447804FA13
:1008400003F184781440214309010E4C0678A15528
:10085000047804F01F050124AC4005786D11AD004B
:1008600005F1E025C5F8004109E0047804F01F0512
:100870000124AC40044D0678761145F8264070BD41
:100880000CED00E000E400E080E100E002490143FB
:10089000024A1160704700000000FA050CED00E00C
:1008A00070B500240EE00021204600F0F4F8002589
:1008B00004E0002000F080F9681CC5B2802DF8DB50
:1008C000601CC4B2082CEEDB70BD000008B501212D
:1008D000082000F0F1F914208DF8030003208DF8B2
:1008E00002004FF48070ADF8000069460A48FFF737
:1008F00091FD4FF40070ADF8000069460648FFF71F
:1009000089FD012211020448FFF765FE0122510210
:100910000148FFF760FE08BD000C014070B50546B8
:10092000002419E080202041284008B1012000E087
:10093000002002464FF400710E48FFF74CFE0122E2
:1009400011020C48FFF747FE00224FF4807109485E
:10095000FFF741FE601CC4B2082CE3DB0122110248
:100960000448FFF738FE00224FF480710148FFF77A
:1009700032FE70BD000C014010B5012251020A4840
:10098000FFF729FE012211020748FFF724FE00228B
:100990004FF400710448FFF71EFE00224FF48071EF
:1009A0000148FFF718FE10BD000C014010B50022F1
:1009B0004FF400710648FFF70EFE012211020448B1
:1009C000FFF709FE012251020148FFF704FE10BDA6
:1009D000000C014070B5002406E0002500E06D1C0D
:1009E000B5F57A7FFBD3641CB4F57A7FF5D3FFF7B6
:1009F0006DFFAE2000F0D0F8D52000F0CDF88020BB
:100A000000F0CAF8A82000F0C7F83F2000F0C4F8B2
:100A1000D32000F0C1F8002000F0BEF8402000F024
:100A2000BBF8A12000F0B8F8C82000F0B5F8DA2033
:100A300000F0B2F8122000F0AFF8812000F0ACF81E
:100A4000CF2000F0A9F8D92000F0A6F8F12000F09E
:100A5000A3F8DB2000F0A0F8302000F09DF8A420DF
:100A600000F09AF8A62000F097F88D2000F094F896
:100A7000142000F091F8AF2000F08EF8FFF710FF7F
:100A800070BD10B50246012000E050430B1EA1F1DD
:100A90000101FAD110BD70B505460C4645F0B00015
:100AA00000F07AF8102141EA141000F075F804F013
:100AB0000F0000F071F870BD2DE9F04105460E46BB
:100AC0001746721ED206110E6A1E5206100EFFF74E
:100AD000E2FF002409E0A7F12001134A02EB011113
:100AE000085D00F069F8601CC4B2082CF3DB721ECC
:100AF000D206110E6A1E012303EB4202D0B2FFF7A9
:100B0000CAFF00240BE0A7F12001074A02EB011203
:100B100004F10801505C00F04FF8601CC4B2082CCE
:100B2000F1DBBDE8F08100000E2100082DE9F0475F
:100B300080460E4617461D46002415E0281B411E20
:100B40000A20FFF79EFFB7FBF0F00A21B0FBF1F29D
:100B500001FB120000F130093019C1B24A4640468B
:100B6000FFF7AAFF601CC4B2AC42E7DBBDE8F08728
:100B70002DE9F04107460E461546002407E02A5DA0
:100B80003019C1B23846FFF797FF601CC4B2285D28
:100B90000028F4D1BDE8F08110B50446FFF7ECFE63
:100BA0007820FFF7BBFE0020FFF7B8FE2046FFF7D6
:100BB000B5FEFFF7FBFE10BD10B50446FFF7DCFEE7
:100BC0007820FFF7ABFE4020FFF7A8FE2046FFF796
:100BD000A5FEFFF7EBFE10BD00B589B00121C802EC
:100BE00000F06AF80121042000F066F818208DF862
:100BF00023004FF41060ADF8200003208DF8220090
:100C000008A92248FFF706FC214800F0A3FA0020BB
:100C1000ADF81A00ADF816006320ADF818002320D7
:100C2000ADF8140000208DF81C0005A9184800F04C
:100C3000A9FB01A800F095FB6020ADF8040000209E
:100C4000ADF80C000120ADF806000020ADF80A0058
:100C500001A90F4800F084FA01A90D4800F036FB05
:100C600001210B4800F04DFA0821094800F0C4FAB0
:100C70000821074800F068FB0121054800F026FA2A
:100C80000121034800F031FA09B000BD000801401D
:100C9000002C01407047000029B1064AD269024386
:100CA000044BDA6104E0034AD2698243014BDA6102
:100CB000704700000010024029B1064A92690243C1
:100CC000044B9A6104E0034A92698243014B9A61A2
:100CD000704700000010024000B589B001210920D2
:100CE000FFF7EAFF01210220FFF7D6FF0121284884
:100CF000FFF71CFC01212748FFF718FC3220ADF854
:100D0000200018208DF8230003208DF8220008A968
:100D10002148FFF77FFB05A800F086FB4720ADF8D0
:100D2000140044F61F60ADF8180005A91B4800F038
:100D300029FB6020ADF804000120ADF8060000207A
:100D4000ADF80C0016480088ADF80A0001A9134858
:100D500000F006FA01A9114800F058FA01A90F485D
:100D600000F0B4FA08210D4800F046FA08210B48BB
:100D700000F09EFA0821094800F0E6FA0121074830
:100D800000F0A4F90121054800F0AFF909B000BD59
:100D90000002300000081A00000C0140000400406E
:100DA0002000002010B540F20E6409E021461348EF
:100DB00000F0E3FA142000F069FC04F10A0084B2A8
:100DC00040F2A4608442F1DD41F2040000F05EFCD8
:100DD00040F2A46409E02146084800F0CEFA14204D
:100DE00000F054FCA4F10A0084B240F2DC508442CA
:100DF000F1DA322000F04AFC10BD0000000400408F
:100E000070B5054640F20E6409E02146124800F034
:100E1000B6FA142000F03AFC04F10A0084B240F261
:100E2000A4608442F1DD284600F030FC40F2A46466
:100E300009E02146084800F0A2FA142000F026FC40
:100E4000A4F10A0084B240F2DC508442F1DA32208C
:100E500000F01CFC70BD00000004004010B504460A
:100E6000B42C01DDB42000E020460446084804808C
:100E70004FF4FA606043B42190FBF1F000F5FA7092
:100E80000449088008460188034800F074FA10BD40
:100E90001C00002020000020000400402DE9F05F2D
:100EA00007460C46142C01DABDE8F09FB42F01DD93
:100EB000B42000E038460746142094FBF0F085B2D9
:100EC00001201E4908701E48008801F04DF8824636
:100ED000284601F049F88146384601F045F8834636
:100EE000514601F09FF88046494600F043FF064610
:100EF0004FF0000818E03146504600F0D9FE824617
:100F00004FF07C51504600F0D3FE834600F0F4FFD2
:100F10001FFA80F94846FFF7A1FF142000F0B6FB46
:100F200008F101001FFA80F8A845E4DB002003491E
:100F300008703846FFF792FF00BFB5E71E0000209B
:100F40001C000020704710B500F002F810BD000032
:100F50000CB50020019000903348006840F48030C8
:100F60003149086000BF3048006800F4003000904C
:100F70000198401C0190009818B90198B0F5A06F35
:100F8000F1D12948006800F4003010B10120009030
:100F900001E0002000900098012843D12348006818
:100FA00040F01000214908600846006820F0030066
:100FB00008600846006840F0020008601A4840686F
:100FC000194948600846406848600846406840F44F
:100FD000806048600846406820F47C1048600846FD
:100FE000406840F4E81048600846006840F08070AF
:100FF000086000BF0C48006800F000700028F9D0BD
:101000000948406820F003000749486008464068E6
:1010100040F00200486000BF0348406800F00C0048
:101020000828F9D10CBD0000001002400020024049
:101030007047000010B51348006840F001001149E6
:10104000086008464068104908400E494860084654
:1010500000680E4908400B4908600846006820F403
:10106000802008600846406820F4FE0048604FF485
:101070001F008860FFF767FF4FF0006004490860B9
:1010800010BD0000001002400000FFF8FFFFF6FE58
:1010900008ED00E010B50121880700F041F80128B3
:1010A0000ED108210748FFF789FA012804D1064824
:1010B0000068401C044908600121880700F012F80C
:1010C00010BD0000000801401400002021B102887A
:1010D00042F08002028004E002884FF67F731A40DB
:1010E00002807047CA430282704721B1028842F0F1
:1010F0000102028004E002884FF6FE731A4002806B
:10110000704731B1B0F8442042F40042A0F84420C6
:1011100005E0B0F84420C2F30E02A0F84420704766
:1011200030B50246002000230024158A05EA010399
:10113000958905EA010413B10CB1012000E00020FB
:1011400030BD1AB183890B43838102E083898B43CD
:101150008381704701894FF6F87211400181704711
:1011600070B5002400220023058C4FF6FE76354032
:101170000584028C8388048B4FF68F752C40B51E36
:101180002C400D882C43751E2A400D892A434D881A
:101190002A43144DA8420BD0134DA84208D0134D3A
:1011A000A84205D0124DA84202D0124DA84213D138
:1011B0004FF6F7752A404D892A434FF6FB752A40B2
:1011C0008D882A434FF6FF652B404FF6FF552B4085
:1011D0008D892B43CD892B4383800483CD888586DD
:1011E000028470BD002C01400034014000400140E9
:1011F00000440140004801400A460021018B4FF69F
:10120000F7731940114301837047000070B5002443
:1012100000220023058C4FF6EF7635400584028CC2
:101220008388048B48F6FF752C404FF6FF452C4011
:101230000D884FF6FF7606EA05252C434FF6DF753D
:101240002A400D8906EA05152A434D8806EA051548
:101250002A43154DA84202D0144DA8421DD14FF685
:101260007F752A404D894FF6FF7606EA05152A4319
:101270004FF6BF752A408D8806EA05152A434FF6BA
:10128000FF352B404FF2FF752B408D8906EA85050F
:101290002B43CD8906EA85052B4383800483CD88C3
:1012A0000587028470BD0000002C0140003401401D
:1012B0000A460021018B4FF2FF7319404FF6FF736E
:1012C00003EA0223194301837047000070B500222E
:1012D00000230024058C4EF6FF7635400584038CF0
:1012E0008488828B48F6FF752A404FF6FF452A40D6
:1012F0000D884FF6FF7606EA05252A434DF6FF7561
:101300002B400D8906EA05352B434D8806EA053545
:101310002B430B4DA84202D00A4DA84208D14BF6F0
:10132000FF752C408D894FF6FF7606EA85152C4314
:1013300084808283CD88A0F84050038470BD000073
:10134000002C0140003401400A460021818B4FF2FD
:10135000FF7319404FF6FF7303EA02231943818399
:1013600070470021018041808180C18001814181DD
:101370008181C18170478186704701877047A0F8DD
:1013800040107047002202881D4B98420ED01D4B22
:1013900098420BD0B0F1804F08D01B4B984205D03B
:1013A0001A4B984202D01A4B984204D14FF68F73D1
:1013B0001A404B881A43174B984207D0164B984255
:1013C00004D04FF6FF431A40CB881A4302808B8823
:1013D00083850B8803850A4B98420BD0094B9842B2
:1013E00008D00E4B984205D00D4B984202D00D4BC1
:1013F000984201D10B7A0386012383827047000053
:10140000002C01400034014000040040000800406E
:10141000000C00400010004000140040004001405B
:1014200000440140004801404FF6FF7181800021D7
:101430000180C1804180017270471FB501210846BB
:10144000FFF72AFC4FF08040FFF784FE0020ADF844
:101450000A00ADF806004CF24F30ADF80800472006
:10146000ADF8040000208DF80C0001A94FF0804079
:10147000FFF788FF01218807FFF734FE0122412191
:101480008807FFF75EFE4FF4A060FFF7FFF91C200E
:101490008DF8000001208DF8030000208DF8010078
:1014A00001208DF802006846FFF7B8F9012188078E
:1014B000FFF71BFE1FBD000010B540F22551234869
:1014C00000F0B3F800283FD0204800F0D8F8C1B2AF
:1014D0001F4802780078401C1D4B18701D4881542D
:1014E00000785A2802D00020194608701848007861
:1014F000022806D1174840785A2802D00020144903
:1015000008701348007803281EDD1248C078401D7B
:101510000F490978884200D010BD0E488078152800
:101520000ED10D48007850B90C480A490A6802608B
:101530004A684260097A017201200749087000BFB9
:1015400000BF00200249087000BFE5E700440040EA
:101550000100002051000020000000204800002071
:1015600010B540F22551244800F05FF8002842D021
:10157000214800F084F8C4B22048007820B1012846
:1015800013D0022830D120E0402C0DD101201B497E
:10159000087000201A490870084601780078401C3D
:1015A000174A1070174844541EE015480178007817
:1015B000401C134A107013484454104600780C28FD
:1015C00002DB02200D4908700EE00E48807A0D28DB
:1015D00006D10C48C07A0A2802D101200A490870B5
:1015E00000200649087000BF00BF40F225510248A4
:1015F00000F00CF800BF10BD004800403000002093
:1016000031000020660000202400002010B50022D8
:10161000002340F66A14A14200D100BF0A1201243F
:101620009440A3B2DC43048010BD70B50246002490
:1016300000230025002040F66A16B14200D100BF09
:10164000C1F3421501F01F03012606FA03F3012D31
:1016500002D19689334006E0022D02D1168A33402A
:1016600001E0968A33400C12012606FA04F416882B
:10167000344013B10CB1012000E0002070BD0146E0
:101680008888C0F30800704700BFFEE700B5034636
:1016900003E04FF47A7000F005F8181EA3F101037F
:1016A000F7D100BD00EBC001C9004FF0E02251614D
:1016B000002191610521116100BF4FF0E02109690E
:1016C00001F480310029F8D004214FF0E0221161AB
:1016D000704700004FF4A060FFF7D8F8FFF728F834
:1016E000FFF778F9FEF7AEFD00F0BAFAFEF7D8FF83
:1016F000FEF7B2FFFFF7A1FEFFF7EEFA8220FFF739
:10170000ADFB4FF4FA60FFF7C1FFFFF76DF8B1E1F1
:10171000FEF766FF044600F0EFFBD7490880D7A22A
:1017200001210846FFF724FA0223D6480621026861
:101730000120FFF7FBF94FF40071D348FEF747FF94
:10174000D2480088002872D1D148008830B10128E1
:1017500045D0022857D0032840D169E0C648008808
:10176000132837D2DFE800F0360A0B0C0D0E0F10ED
:101770001112131415161718191A1B0000BF00BFF9
:1017800000BF00BF00BF00BF00BF00BF00BF00BF61
:1017900000BF00BF00BF00BF00BF00BF00BFFEF71B
:1017A000B3FFB548008800B2FEF762FD002108468D
:1017B000FEF7D8FF4FF4FA615A20FFF76FFB4FF4A2
:1017C0007A70FFF763FF8220FFF748FB0320B049E0
:1017D000088002E000F090F900BF00BF4AE06FF01F
:1017E0000E010846FEF7BEFF002405E000F084F974
:1017F0000A20FFF74BFF641CB4F5967FF6DB002050
:10180000A349088036E04FF4FA60FFF73FFFFEF788
:101810007BFF0A20FEF72CFDFFF7C4FA9948006809
:10182000401E9849086003209949088022E022E080
:1018300094480068002813DDA620FFF70FFB4FF443
:10184000FA70FFF723FF4FF4C870FFF7D9FA8D48FD
:101850000068401E8B49086001208D49088008E01F
:10186000A620FFF7FBFAFEF759FF00210846FEF716
:1018700079FF00BFFEE0854800880128FAD185483D
:10188000008820B101287DD002287CD1D3E07A489D
:101890000088401F2F2877D2DFE800F018191A1BA4
:1018A0001C1D1E3C3D3E3F405E5F6061626364659F
:1018B000666768696A6B8A8B8C8D8E8F9091929324
:1018C0009495969798999A9B9C9D9E0000BF00BF07
:1018D00000BF00BF00BF00BFFEF716FF66480088CC
:1018E00000B2FEF7C5FC00210846FEF73BFF4FF4AF
:1018F000FA615A20FFF7D2FA4FF47A70FFF7C6FE6A
:101900008220FFF7ABFA022062490880002062497A
:1019100008607FE000BF00BF00BF00BFFEF7F4FE1D
:101920005548008800B2FEF7A3FC00210846FEF7E8
:1019300019FF4FF4FA616420FFF7B0FA4FF47A70A0
:10194000FFF7A4FE8220FFF789FA022051490880A0
:101950000020514908605DE000BF00BF00BF00BF2C
:1019600000BF00BF00BF00BF00BF00BF00BF00BF7F
:1019700000BFFEF7C9FE4048008800B2FEF778FCC1
:10198000002102E048E074E041E00846FEF7EAFE8C
:101990009620FFF763FA4FF4FA60FFF777FEFFF740
:1019A00001FA02203B49088000203B49086031E0F1
:1019B00000BF00BF00BF00BF00BF00BF00BF00BF2F
:1019C00000BF00BF00BF00BF00BF00BF00BF00BF1F
:1019D00000BF00BF00BF00BFFEF796FE264800888C
:1019E00000B2FEF745FC00210846FEF7BBFE822050
:1019F000FFF734FA4FF4FA60FFF748FEFFF7D2F929
:101A000002202449088000202349086002E000F0F9
:101A100073F800BF00BF2CE0002405E000F06CF874
:101A20000A20FFF733FE641CB4F5967FF6DB002036
:101A3000184908801DE01348006800280FDDA62023
:101A4000FFF70CFA4FF4C870FFF7DAF90D48006899
:101A5000401E0C49086001200E49088008E0A620BD
:101A6000FFF7FCF9FEF75AFE00210846FEF77AFE62
:101A700000BF00BF4CE600003400002042616C6CE7
:101A80003A0000003C000020000801400C0000204B
:101A900036000020380000204400002010B520212E
:101AA0000E48FEF78BFD0E49088040210B48FEF7DB
:101AB00085FD0C49088080210848FEF77FFD0A4912
:101AC000088001210948FEF779FD094908800221B3
:101AD0000648FEF773FD0749088010BD0008014065
:101AE0000A0000200800002006000020000C014031
:101AF000040000200200002010B5FFF7CFFFFEF722
:101B00000DFE20215048FEF762FD5048008890B934
:101B10004F48008801280ED14E48008858B94E48D9
:101B2000008840B94D48008828B96FF01301C810EB
:101B3000FEF718FE86E04548008898B944480088BA
:101B400001280FD14348008801280BD14248008862
:101B500040B94248008828B96FF011010A20FEF709
:101B600001FE6FE03948008890B93948008878B99B
:101B70003848008801280BD13748008840B93748D9
:101B8000008828B96FF01001481EFEF7EBFD59E000
:101B90002E480088A0B92E48008888B92D480088B2
:101BA00001280DD12C480088012809D12B48008834
:101BB00030B96FF009016FF01100FEF7D3FD41E07D
:101BC0002248008898B92248008880B921480088B6
:101BD00068B921480088012809D12048008830B917
:101BE0006FF001016FF01300FEF7BCFD2AE017480B
:101BF0000088012811D11648008870B9154800885E
:101C000058B91548008840B91448008828B96FF0C1
:101C10000E01C810FEF7A6FD14E00C48008888B934
:101C20000B48008870B90B48008858B90A480088EA
:101C300040B90A480088012804D1C11E6FF00E0087
:101C4000FEF790FD10BD0000000C014002000020D6
:101C50000400002006000020080000200A000020E8
:101C600008B501210420FFF727F801210820FFF71C
:101C700023F804208DF80300E020ADF800000320D5
:101C80008DF8020069460848FEF7C4FB04208DF871
:101C900003000320ADF800008DF8020069460348F8
:101CA000FEF7B8FB08BD000000080140000C014031
:101CB00090EA010F48BF81F0004100F1BA81421A59
:101CC0003CBF801A89184FEAD0524FF07F4C1CEA73
:101CD000410FA2EBD15318BF9CEA026F00F03B808A
:101CE0004FF0004C4CEA00204CEA012121FA03FCA1
:101CF00010EB0C0C1ED202F1FF325FEA1C2040EB0D
:101D0000C25038BF70471CF07F0F4FEA400C18BF1D
:101D1000BCF17F4F38BF7047C3F12003994008BF23
:101D200020F00100BCF17F4F38BF7047A0F1C040E8
:101D300000F073B94FEA3C00000A40EBC25028BFE4
:101D40001CF0FF0F4FEA400CE6D018BFBCF17F4FEC
:101D500038BF7047EAE79CEA026F05D010EA5C0FD3
:101D600008BF00F00040704710B500F010F900BF48
:101D700064FBBE3E4FF47F0C1CEAD0121EBF1CEA6F
:101D8000D11392EA0C0F93EA0C0F00F0858090EAD1
:101D9000010F48BF42F4807240F4000C41F400008F
:101DA0002CF07F4120F07F4000B58142A2EB03027E
:101DB0000FF2081CACEB504EC0F100009EF800E0A2
:101DC0004FEA4E0E00FB0EFC38BF49004FEA2C1CB8
:101DD00002F5FA020CFB0EF34FEACE1E4FEA112C6D
:101DE0004FEAC1210EEB635E42EB22420EFB0CFC7C
:101DF0004FEA1C5300FB03114FEA112C4FEA01314B
:101E00000EFB0CFC4FEADC4C00FB0C11C14228BF5E
:101E100009184CEB03335DF804EB10EB410143EB85
:101E2000C250B2F57C0F38BF704729D512F0F00FC1
:101E30001CBF00F1C04000F0004070470081828369
:101E40008485868788898B8C8D8E8F9192939596C9
:101E500097999A9C9D9FA0A2A3A5A7A8AAACAEB053
:101E6000B2B3B5B7B9BCBEC0C2C5C7C9CCCED1D458
:101E7000D7D9DCDFE2E6E9ECF0F3F7FAFE00000088
:101E80004FEA400C0CF1807CBCF17E4F28BF7047BC
:101E9000B0F1C04000F0C1B890EA010F0CEAD113D4
:101EA00048BF42F48072624538BF634507D213F4DD
:101EB0007F0F16D080EA010000F00040704710B597
:101EC00000F065F8097EFC3E00F005B880EA0100EC
:101ED00000F00040704780EA010000F0004000F090
:101EE0009CB812F47F0F04BF0248704780EA0100DB
:101EF00000F093B80000C07FC10DD1F19E0206DB57
:101F00004FEA002343F0004323FA02F070470042F7
:101F100007D54FEA4001B1F1FE4F02D24FF0000069
:101F2000704710B500F033F84992248000207047C4
:101F30006FEA20007047000010F0004148BF4042A7
:101F4000B0FA80F310FA03F2C3F19D030BD051EA0B
:101F5000C35101EB1220530638BF704700F1010056
:101F600008BF20F001007047B0FA80F310FA03F2C6
:101F7000C3F19D030AD0D90501EB1220530638BFE7
:101F8000704700F1010008BF20F0010070470EF11A
:101F9000020E2EF0030E5EF8044B244204D44FEAE6
:101FA0004102B2F17F4F11D84FEA4003B3F17F4FA6
:101FB0000CD80ED14FEAD07CB2F17F4F0CEB4C0C19
:101FC0000CF1020C08BF4CEBD17C04E04FF0080C84
:101FD00001E04FEAD17C0CEB4C0324FA03F404F04B
:101FE0000704B4F1040C06D20EEB840CBDE81040DB
:101FF0004CF0010C6047DFE80CF0070802024FF0DC
:102000000040A0F5800010BD0846420018BFD2F184
:10201000807288BF00F0004010BDFF2141EAD0501F
:10202000C005704790EA010F48BF81F000413FF5BD
:1020300046AE421A04D882F00042A0EB02001144DE
:102040004FEAD0524FF07F4C1CEA410FA2EBD15324
:1020500018BF9CEA026F4AD04FF0004C4CEA0020B7
:102060004CEA012121FA03FCB0EB0C0C0FD412F066
:10207000FE0F36D05FEA4C001DD5001240EBC25077
:1020800038BF70471CF03F0F18BF70470BE0A2F13C
:1020900001025FEA1C2040EBC25038BF70471CF0C1
:1020A0007F0F18BF7047C3F12003994014BF401E33
:1020B00020F00100704780084FEA122308BF7047E4
:1020C000B0FA80FCA2EB0C02CCF1280C60FA0CF008
:1020D00093EA122F04BF00EBC25070474FEAC3705F
:1020E0007047130A5FEADC1008BF7047F6E79CEA06
:1020F000026F04D010EA5C0F08BF0020704710B5D3
:10210000FFF745FF40DFF63E81F0004070470000DA
:1021100000000000000000000000000000000000BF
:1021200000F8000000000000003330000000001044
:102130000C06100C0600000000000000000040C06B
:102140007840C0784000043F04043F04040000705D
:1021500088FC08300000001820FF211E0000F00855
:10216000F000E018000000211C031E211E0000F0FA
:102170000888700000001E21232419272110101642
:102180000E00000000000000000000000000000041
:1021900000E01804020000000007182040000002C0
:1021A0000418E00000000040201807000000404034
:1021B00080F0804040000202010F01020200000096
:1021C00000F0000000000101011F010101000000FA
:1021D00000000000000080B070000000000000005F
:1021E00000000000000000010101010101010000E8
:1021F000000000000000003030000000000000007F
:10220000000080601804006018060100000000E073
:1022100010080810E000000F102020100F00001020
:1022200010F8000000000020203F20200000007077
:10223000080808887000003028242221300000306F
:102240000888884830000018202020110E00000067
:10225000C02010F8000000070424243F240000F8E8
:102260000888880808000019212020110E0000E0CD
:10227000108888180000000F112020110E0000386F
:102280000808C83808000000003F00000000007087
:10229000880808887000001C222121221C0000E010
:1022A00010080810E0000000312222110F00000089
:1022B00000C0C0000000000000303000000000003E
:1022C00000800000000000008060000000000000AE
:1022D0008040201008000001020408102000404047
:1022E000404040404000040404040404040000088A
:1022F000102040800000002010080402010000703F
:1023000048080808F0000000003036010000C03026
:10231000C828E810E0000718272423140B00000049
:10232000C038E0000000203C23020227382008F8D3
:10233000888888700000203F202020110E00C030C7
:10234000080808083800071820202010080008F89E
:1023500008080810E000203F202020100F0008F897
:102360008888E8081000203F20202320180008F863
:102370008888E8081000203F200003000000C030DB
:1023800008080838000007182020221E020008F85C
:1023900008000008F808203F210101213F20000823
:1023A00008F8080800000020203F2020000000005E
:1023B0000808F8080800C08080807F00000008F846
:1023C00088C028180800203F20012638200008F87F
:1023D000080000000000203F20202020300008F8E6
:1023E000F800F8F80800203F003F003F200008F800
:1023F00030C00008F808203F200007183F00E01018
:1024000008080810E0000F10202020100F0008F826
:1024100008080808F000203F210101010000E01039
:1024200008080810E0000F18242438504F0008F85E
:10243000888888887000203F2000030C30200070BE
:102440008808080838000038202121221C001808BC
:1024500008F8080818000000203F2000000008F8D5
:1024600008000008F808001F202020201F0008781E
:10247000880000C83808000007380E010000F8087E
:1024800000F80008F800033C0700073C03000818A8
:1024900068808068180820302C03032C302008380E
:1024A000C800C83808000000203F200000001008C5
:1024B0000808C8380800203826212020180000000D
:1024C00000FE020202000000007F40404000000CBD
:1024D00030C000000000000000010638C00000020B
:1024E0000202FE000000004040407F0000000000AB
:1024F00004020202040000000000000000000000CE
:1025000000000000000080808080808080800002C9
:1025100002040000000000000000000000000000B5
:102520008080808000000019242222223F2008F8A9
:10253000008080000000003F112020110E000000EC
:10254000008080800000000E11202020110000007B
:1025500000808088F800000E112020103F2000002D
:10256000808080800000001F222222221300008031
:1025700080F0888888180020203F2020000000007C
:10258000808080808000006B94949493600008F8B1
:10259000008080800000203F210000203F2000803C
:1025A0009898000000000020203F2020000000003C
:1025B00000809898000000C08080807F000008F8AC
:1025C000000080808000203F24022D302000000881
:1025D00008F8000000000020203F2020000080803C
:1025E000808080808000203F20003F20003F80804E
:1025F000008080800000203F210000203F2000005C
:10260000808080800000001F202020201F0080800C
:1026100000808000000080FFA12020110E0000003B
:10262000008080808000000E112020A0FF8080802C
:1026300080008080800020203F21200001000000D9
:1026400080808080800000332424242419000080AE
:1026500080E0808000000000001F202000008080BB
:10266000000000808000001F202020103F2080807C
:1026700080000080808000010E300806010080800C
:102680000080008080800F300C030C300F00008031
:102690008000808080000020312E0E31200080805C
:1026A00080000080808080818E701806010000808C
:1026B0008080808080000021302C222130000000AA
:1026C0000000807C020200000000003F404000004B
:1026D0000000FF00000000000000FF0000000002FA
:1026E000027C800000000040403F00000000000627
:1026F00001010202040400000000000000000000CC
:1027000020270008000000204800000028010008E1
:102710006827000848000020F00600004401000877
:1027200000000000000000000000000000000000A9
:102730000000000000000000000000005A0000003F
:10274000DC050000000000000000000000000000A8
:102750000000000000000200000000000500000072
:0827600005000000000000006C
:04000005080000ED02
:00000001FF
